:100000000C945F000C948B000C94B2000C9487004D
:100010000C9487000C9487000C9487000C942C059A
:100020000C9487000C9487000C9487000C94870034
:100030000C9487000C9487000C9487000C94870024
:100040000C94D9000C9487000C9444030C94710315
:100050000C9487000C9487000C9487000C94870004
:100060000C9487000C948700000000080002010037
:100070000003040700000000000000000102040863
:100080001020408001020408102001020408102002
:10009000040404040404040402020202020203032E
:1000A0000303030300000000250028002B000000CC
:1000B0000000240027002A000200A10320041124CC
:1000C0001FBECFEFD8E0DEBFCDBF11E0A0E0B1E0B2
:1000D000E4E9FBE002C005900D92AE31B107D9F71B
:1000E00021E0AEE1B1E001C01D92A13DB207E1F710
:1000F00010E0CFE5D0E004C02197FE010E94C205C8
:10010000CD35D107C9F70E942C040C94C8050C9476
:100110000000089508951F920F920FB60F921124B8
:100120002F933F934F935F936F937F938F939F93FF
:10013000AF93BF93EF93FF93E0910001F091010122
:100140000995FF91EF91BF91AF919F918F917F9111
:100150006F915F914F913F912F910F900FBE0F9034
:100160001F9018951F920F920FB60F9211242F9384
:100170003F934F935F936F937F938F939F93AF932F
:10018000BF93EF93FF93E0910201F0910301099572
:10019000FF91EF91BF91AF919F918F917F916F915F
:1001A0005F914F913F912F910F900FBE0F901F9035
:1001B00018951F921FB61F9211242F933F938F9370
:1001C0009F93AF93BF9380911F0190912001A091C5
:1001D0002101B091220130911E0123E0230F2D3720
:1001E00050F50196A11DB11D20931E0180931F01A2
:1001F00090932001A0932101B093220180912301CB
:1002000090912401A0912501B09126010196A11D94
:10021000B11D8093230190932401A0932501B093F5
:100220002601BF91AF919F918F913F912F911F9088
:100230001FBE1F90189526E8230F0296A11DB11D21
:10024000D3CFCF93DF9300D000D0CDB7DEB73FB789
:10025000F8948091230190912401A0912501B091FF
:10026000260126B5A89B05C02F3F19F00196A11DB8
:10027000B11D3FBFBA2FA92F982F8827820F911D3C
:10028000A11DB11D9C01AD0162E0220F331F441F6F
:10029000551F6A95D1F7CA01B9010F900F900F90C1
:1002A0000F90DF91CF9108958F929F92AF92BF925E
:1002B000CF92DF92EF92FF92CF93DF9300D000D0E6
:1002C000CDB7DEB76B017C010E9421014B015C01BF
:1002D000C114D104E104F10479F40F900F900F9050
:1002E0000F90DF91CF91FF90EF90DF90CF90BF9074
:1002F000AF909F908F9008950E9489000E942101E5
:10030000DC01CB0188199909AA09BB09883E9340F1
:10031000A105B105E8F221E0C21AD108E108F1080F
:1003200088EE880E83E0981EA11CB11CC114D10474
:10033000E104F10419F7CCCF789484B5826084BDD0
:1003400084B5816084BD85B5826085BD85B58160D9
:1003500085BDEEE6F0E0808181608083E1E8F0E039
:100360001082808182608083808181608083E0E868
:10037000F0E0808181608083E1EBF0E08081846047
:100380008083E0EBF0E0808181608083EAE7F0E049
:1003900080818460808380818260808380818160AD
:1003A00080838081806880831092C10008958430AA
:1003B00099F038F48230C1F0833041F0813081F01F
:1003C00008958730A1F08830C1F0089580918000B1
:1003D0008F77809380000895809180008F7DF9CF82
:1003E00084B58F7784BD089584B58F7DFBCF8091D0
:1003F000B0008F778093B00008958091B0008F7D1A
:10040000F9CFCF93DF9390E0FC01E458FF4F2491A4
:1004100080579F4FFC0184918823C9F090E0880F9A
:10042000991FFC01E255FF4FA591B491FC01EC55D9
:10043000FF4FC591D49161110DC09FB7F8948C9175
:10044000209582238C938881282328839FBFDF9166
:10045000CF910895623051F49FB7F8943C91822F68
:10046000809583238C93E8812E2BEFCF8FB7F89460
:10047000EC912E2B2C938FBFEACF1F93CF93DF935A
:10048000162F282F30E0F901E859FF4F8491F90128
:10049000E458FF4FD491F901E057FF4FC491CC23AA
:1004A000A1F081110E94D701EC2FF0E0EE0FFF1FA9
:1004B000EC55FF4FA591B4918FB7F894EC911111C1
:1004C00008C0D095DE23DC938FBFDF91CF911F91C1
:1004D0000895DE2BF8CFFC01818D228D90E0805CA9
:1004E0009F4F821B91098F7399270895FC01918D6D
:1004F000828D981731F0828DE80FF11D858D90E087
:1005000008958FEF9FEF0895FC01918D828D9817CC
:1005100061F0828DDF01A80FB11D5D968C91928DE7
:100520009F5F9F73928F90E008958FEF9FEF0895E4
:10053000FC01538D448D252F30E0842F90E0821BE9
:10054000930B541710F0CF9608950197089587E9FB
:1005500093E0892B49F080E090E0892B29F00E94FC
:10056000970381110C9400000895FC01848DDF0134
:10057000A80FB11DA35ABF4F2C91848D90E0019616
:100580008F739927848FA689B7892C93A089B18905
:100590008C91837080648C93938D848D981306C0A6
:1005A0000288F389E02D80818F7D80830895CF9329
:1005B000DF93EC01888D8823B9F0AA89BB89E8898B
:1005C000F9898C9185FD03C0808186FD0DC00FB631
:1005D00007FCF7CF8C9185FFF2CF808185FFEDCFAF
:1005E000CE010E94B502E9CFDF91CF910895EF923D
:1005F000FF920F931F93CF93DF93EC01F62E81E0D0
:10060000888F9B8D8C8D98131AC0E889F989808119
:1006100085FF15C09FB7F894EE89FF896083E8894C
:10062000F98980818370806480839FBF81E090E03E
:10063000DF91CF911F910F91FF90EF9008950B8D57
:1006400010E00F5F1F4F0F731127E02E8C8D8E115E
:100650000CC00FB607FCFACFE889F989808185FFC5
:10066000F5CFCE010E94B502F1CF8B8DFE01E80FD0
:10067000F11DE35AFF4FF0829FB7F8940B8FEA8980
:10068000FB8980818062D0CF2F932FB72F938F93D8
:100690009F93EF93FF93E0913701F09138018081B0
:1006A000E0913D01F0913E0182FD19C09081809161
:1006B00040018F5F8F7320914101821741F0E091DB
:1006C0004001F0E0E95DFE4F958F80934001FF917E
:1006D000EF919F918F912F912FBF2F91189580812E
:1006E000F6CF1F920F920FB60F9211242F933F93C4
:1006F0004F935F936F937F938F939F93AF93BF932A
:10070000EF93FF9387E291E00E94B502FF91EF9192
:10071000BF91AF919F918F917F916F915F914F9119
:100720003F912F910F900FBE0F901F90189587E269
:1007300091E00E946B029C0181E0232B09F480E090
:100740000895E7E2F1E01382128288EE93E0A0E0E0
:10075000B0E084839583A683B78388E091E091839A
:10076000808385EC90E09587848784EC90E0978780
:10077000868780EC90E0918B808B81EC90E0938B6E
:10078000828B82EC90E0958B848B86EC90E0978B4B
:10079000868B118E128E138E148E08958F929F92D7
:1007A000AF92BF92CF92DF92EF92FF920F931F937F
:1007B000CF93DF938C01D62FC72F4C0182E0880E98
:1007C000911C5801E5E0AE0EB11CD12CC12CF401F6
:1007D00061914F014AE050E08D2F9C2F0E94F00460
:1007E0007C016EE28D2F9C2F0E947F04E80EF91E83
:1007F000CE0CDF1C8A149B0451F74AE050E0F8014C
:1008000065818D2F9C2F0E94F0048C0D9D1DDF9122
:10081000CF911F910F91FF90EF90DF90CF90BF90FD
:10082000AF909F908F9008950F93FC018AE191E023
:100830009183808362834383248305830F9108958A
:100840000F9300E020E040E060E084EC91E00E9443
:1008500014040F91089508950E949C010E942B0496
:100860000E948805C7EAD2E00E948C052097E1F338
:100870000E94A702F9CFCF92DF92EF92FF920F93DF
:100880001F93CF93DF937C016A0110E000E00C1509
:100890001D0581F0EB01D701ED91FC910190F081F4
:1008A000E02D6991C7010995892B21F00F5F1F4F3A
:1008B000BE01EDCFC801DF91CF911F910F91FF9045
:1008C000EF90DF90CF900895CF93DF93EC01DB01A1
:1008D000AB2B81F0FB0101900020E9F73197AF01CC
:1008E000461B570BE881F9810280F381E02DDF91EF
:1008F000CF91099490E080E0DF91CF910895DC01E1
:10090000ED91FC910190F081E02D09946F927F921E
:100910008F929F92AF92BF92CF92DF92EF92FF920F
:100920000F931F93CF93DF93CDB7DEB7A1970FB689
:10093000F894DEBF0FBECDBF3C01142F052F962EBD
:10094000872E19A2223008F42AE05E0181E2A80E67
:10095000B11CC22ED12CF12CE12C612F702F892DCE
:10096000982DA70196010E94A005812F902FA92DF7
:10097000B82D122F032F942E852E6A3014F5605D4A
:10098000F50162935F018C159D05AE05BF0528F743
:10099000BF01C3010E946404A1960FB6F894DEBFA4
:1009A0000FBECDBFDF91CF911F910F91FF90EF90C0
:1009B000DF90CF90BF90AF909F908F907F906F907F
:1009C0000895695CDDCFF901EF2B41F4DC01ED9175
:1009D000FC910190F081E02D642F09940C94860421
:1009E0009A01462F50E070E060E00C94E3048130FF
:1009F00039F0823059F0811119C010926E000895BB
:100A000080916F008D7F80936F00089580917000BA
:100A10008D7F8093700081E08093B0008091B10061
:100A2000887F84608093B1001092B3000895CF93C3
:100A3000C82F80911C01C8130DC0E8EBF0E0849131
:100A40009FEF90931C010E94F70460E08C2FCF91E0
:100A50000C943D028FEFF7CF1F920F920FB60F92BB
:100A600011242F933F934F935F936F937F938F93B3
:100A70009F93AF93BF93EF93FF938091CD0190919C
:100A8000CE01A091CF01B091D001892B8A2B8B2B65
:100A9000D1F19091CA01E091CB01F091CC0180811C
:100AA000892780838091CD019091CE01A091CF01C3
:100AB000B091D001181619061A061B069CF48091F5
:100AC000CD019091CE01A091CF01B091D0010197BD
:100AD000A109B1098093CD019093CE01A093CF01DC
:100AE000B093D001FF91EF91BF91AF919F918F9102
:100AF0007F916F915F914F913F912F910F900FBE1A
:100B00000F901F90189580911C010E941705EACF45
:100B100061E08DE00C94010261E08DE00E943D02F5
:100B200068EE73E080E090E00E94540160E08DE0A8
:100B30000E943D0268EE73E080E090E00C94540166
:100B4000A1E21A2EAA1BBB1BFD010DC0AA1FBB1FD1
:100B5000EE1FFF1FA217B307E407F50720F0A21B43
:100B6000B30BE40BF50B661F771F881F991F1A94B0
:100B700069F760957095809590959B01AC01BD01DA
:100B8000CF010895EE0FFF1F0590F491E02D099419
:040B9000F894FFCF07
:100B94008A008A0000000000F7023B049802D70292
:0E0BA4006B028402760200000000CE03FF0008
:00000001FF
