:100000000C945A050C9441070C9468070C948205D3
:100010000C9482050C9482050C9482050C94FB21AF
:100020000C9482050C9482050C9482050C94820534
:100030000C9482050C9482050C9482050C94820524
:100040000C948F070C9482050C94BD180C94EA183C
:100050000C9482050C9482050C9482050C94820504
:100060000C9421060C948205000000080002010097
:100070000003040700000000000000000102040863
:100080001020408001020408102001020408102002
:10009000040404040404040402020202020203032E
:1000A00003030303000000002300260029000000D2
:1000B0000000250028002B0000000000240027007D
:1000C0002A0000000000003E5B4F5B3E3E6B4F6B22
:1000D0003E1C3E7C3E1C183C7E3C181C577D571C29
:1000E0001C5E7F5E1C00183C1800FFE7C3E7FF00A2
:1000F00018241800FFE7DBE7FF30483A060E2629F0
:10010000792926407F050507407F05253F5A3CE7B2
:100110003C5A7F3E1C1C08081C1C3E7F14227F2278
:10012000145F5F005F5F06097F017F006689956A43
:10013000606060606094A2FFA29408047E040810CE
:10014000207E201008082A1C08081C2A08081E10F7
:100150001010100C1E0C1E0C30383E3830060E3EAF
:100160000E06000000000000005F0000000700070E
:1001700000147F147F14242A7F2A12231308646238
:1001800036495620500008070300001C2241000099
:1001900041221C002A1C7F1C2A08083E08080080F7
:1001A000703000080808080800006060002010088F
:1001B00004023E5149453E00427F40007249494990
:1001C000462141494D331814127F102745454539C2
:1001D0003C4A4949314121110907364949493646C6
:1001E0004949291E000014000000403400000008A6
:1001F0001422411414141414004122140802015949
:1002000009063E415D594E7C1211127C7F494949D5
:10021000363E414141227F4141413E7F494949416A
:100220007F090909013E414151737F0808087F0099
:10023000417F41002040413F017F081422417F401F
:100240004040407F021C027F7F0408107F3E4141F6
:10025000413E7F090909063E4151215E7F09192966
:1002600046264949493203017F01033F4040403F50
:100270001F2040201F3F4038403F63140814630391
:10028000047804036159494D43007F414141020410
:10029000081020004141417F040201020440404017
:1002A0004040000307080020545478407F2844440D
:1002B000383844444428384444287F385454541827
:1002C00000087E090218A4A49C787F080404780022
:1002D000447D40002040403D007F10284400004104
:1002E0007F40007C047804787C0804047838444417
:1002F0004438FC1824241818242418FC7C0804040E
:1003000008485454542404043F44243C4040207C76
:100310001C2040201C3C4030403C44281028444CC9
:100320009090907C4464544C440008364100000096
:10033000770000004136080002010204023C262337
:10034000263C1EA1A161123A4040207A38545455EF
:1003500059215555794122545478422155547840B9
:1003600020545579400C1E52721239555555593941
:100370005454545939555454580000457C41000296
:10038000457D420001457C407D1211127DF02825FB
:1003900028F07C545545002054547C547C0A097F35
:1003A0004932494949323A4444443A324A48483049
:1003B0003A4141217A3A42402078009DA0A07D3DFB
:1003C0004242423D3D4040403D3C24FF2424487E83
:1003D0004943662B2FFC2F2BFF0929F620C0887E6E
:1003E000090320545479410000447D413048484A73
:1003F00032384040227A007A0A0A727D0D19317D26
:100400002629292F28262929292630484D402038F9
:100410000808080808080808382F10C8ACBA2F10B8
:100420002834FA00007B000008142A142222142A1F
:1004300014085500550055AA55AA55AAFF55FF5551
:10044000FF000000FF00101010FF00141414FF0044
:100450001010FF00FF1010F010F0141414FC001422
:1004600014F700FF0000FF00FF1414F404FC141440
:1004700017101F10101F101F1414141F001010103D
:10048000F0000000001F101010101F10101010F0CE
:1004900010000000FF101010101010101010FF10AE
:1004A000000000FF140000FF00FF00001F101700F5
:1004B00000FC04F414141710171414F404F40000CE
:1004C000FF00F714141414141414F700F714141480
:1004D000171410101F101F141414F4141010F0101F
:1004E000F000001F101F0000001F14000000FC148B
:1004F0000000F010F01010FF10FF141414FF14107F
:1005000010101F00000000F010FFFFFFFFFFF0F0D1
:10051000F0F0F0FFFFFF0000000000FFFF0F0F0FE3
:100520000F0F3844443844FC4A4A4A347E020206DB
:1005300006027E027E0263554941633844443C040E
:10054000407E201E2006027E020299A5E7A5991C86
:100550002A492A1C4C7201724C304A4D4D303048A9
:10056000784830BC625A463D3E494949007E010107
:10057000017E2A2A2A2A2A44445F444440514A449C
:100580004040444A51400000FF0103E080FF00006A
:1005900008086B6B083612362436060F090F060062
:1005A0000018180000001010003040FF0101001F6B
:1005B00001011E00191D1712003C3C3C3C000000CC
:1005C00000002200FF2100000103070F1F3F7F00F2
:1005D00080C0E0F0F8FCFEDB40A4A62EAF2000A116
:1005E000C8D300408DAED580A80000600000000098
:1005F00000000000000000000000E000000000001B
:10060000000000000000000001E000000000000009
:100610000000000000000001F000000000000000E9
:1006200000000000000003F00000000000000000D7
:10063000000000000007F0000000000000000000C3
:100640000000000007F800000000000000000000AB
:100650000000000FF800000003C0007E000001E071
:10066000007F0FF800000003C000FE000001E00062
:10067000FFEFF800000003C000FE000001E000FFF3
:10068000FFF800000003C000F00000000F007FFE34
:100690007FC0000003C000F00000000F003FFE7F9D
:1006A000F83FF1FBCFFCFEF3BC3DEFE01FFE7FFF08
:1006B0007FFBFFDFFEFEFFBC3DEFE01FC6FFFF7FBD
:1006C000FBFFDFFEFEFFBC3DEFE00FE3C7FE787BE4
:1006D000C3DE1EF0FFBC3DEF0007FF87FC787BC345
:1006E000DE1EF0F83C3DEF0001FFFFF0007BC3C0D1
:1006F0001EF0F03C3DEF0001F37FE03FFBC3CFFE77
:10070000F0F03C3DEF0003E33F807FFBC3DFFEF0F2
:10071000F03C3DEF0007E73C00787BC3DE1EF0F0C5
:100720003C3DEF0007FFBE00787BC3DE1EF0F03CCF
:100730003DEF0007FFFE00787BC3DE1EF0F03C3D7E
:10074000EF000FFFFE007FFBFFDFFEF0F03FFDEF4D
:10075000E00FFFFF007FFBFFDFFEF0F03FFDEFE06B
:100760000FF9FF003E79F9CF9EF0F01F3DE7E01F43
:10077000F1FF0000000000000000000000001F80EA
:10078000FF007FFFFFFFFFFFFFFFFFFFE01C007F79
:10079000007FFFFFFFFEB46D888D18E000001F0092
:1007A0007FFFFFFFFE95AD7DB577E000000F007F76
:1007B000FFFFFFFEA5AD9D8D19E0000006007FFF45
:1007C000FFFFFEB5ADEDB57EE0000000000001804A
:1007D0000000000000000000000380000000000096
:1007E0000000000007C0000000000000000000073B
:1007F000C00000000000000000000FC0000000006A
:1008000000000000001FE0000000000000000000E9
:100810001FE00000000000000000003FE0000000BA
:100820000000000000003FF0000000000000000099
:10083000007FF0000000000000001FF87FF00000C3
:1008400000000000003FFE7FF000000000000000FC
:100850003FFF7FF0000000000000001FFFFBE000F2
:100860000000000000000FFFF9FFC00000000000C2
:10087000000FFFF9FFF800000000000007FFF1FF84
:10088000FF00000000000003FC73FFFF8000000079
:10089000000001FE3FFFFF80000000000000FF1E7F
:1008A0000FFF000000000000007FFE1FFC000000A2
:1008B000000000003FFFFFF8000000000000000FF4
:1008C000DFFFE0000000000000001F19FFC0000073
:1008D00000000000003F3CFF00000000000000009E
:1008E0007E7CF800000000000000007FFE7C00001D
:1008F000000000000000FFFFFC00000000000000FE
:1009000000FFFFFE0000000000000000FFFFFE00EF
:1009100000000000000001FFEFFE000000000000EA
:100920000001FFCFFE0000000000000003FF07FEF3
:100930000000000000000003FC07FE0000000000B3
:10094000000003F003FE0000000000000001800032
:10095000FE000000000000000000007E000000001B
:100960000000000000003E00000000000000000049
:10097000000C000000000000078000FC000003C025
:10098000000000078001FC000003C0000000078099
:1009900001FC000003C0000000078001E00000002F
:1009A0001E000000078001E00000001E007FE3F74A
:1009B0009FF9FDE7787BDFC0FFF7FFBFFDFDFF7804
:1009C0007BDFC0FFF7FFBFFDFDFF787BDFC0F0F7E7
:1009D00087BC3DE1FF787BDE00F0F787BC3DE1F0AE
:1009E000787BDE0000F787803DE1E0787BDE007FEA
:1009F000F7879FFDE1E0787BDE00FFF787BFFDE131
:100A0000E0787BDE00F0F787BC3DE1E0787BDE003C
:100A1000F0F787BC3DE1E0787BDE00F0F787BC3D76
:100A2000E1E0787BDE00FFF7FFBFFDE1E07FFBDF69
:100A3000C0FFF7FFBFFDE1E07FFBDFC07CF3F39F6A
:100A40003DE1E03E7BCFC000000000000000000060
:100A50000000FFFFFFFFFFFFFFFFFFFFC0FFFFFFE3
:100A6000FFFD68DB111A31C0FFFFFFFFFD2B5AFBB2
:100A70006AEFC0FFFFFFFFFD4B5B3B1A33C0FFFF78
:100A8000FFFFFD6B5BDB6AFDC0005EBCE2613FDD2A
:100A900083C29C7E20A3FD1F41009D23BE46DB65D3
:100AA000F88C11AF32CA57E974021A19991919232F
:100AB0002727552711241FBECFEFD8E0DEBFCDBFBB
:100AC00011E0A0E0B1E0ECE6F6E502C005900D9281
:100AD000A03FB107D9F724E0A0EFB1E001C01D921B
:100AE000A430B207E1F715E0C9E5D5E004C02197CD
:100AF000FE010E94E629C535D107C9F70E94AC1C4A
:100B00000C94292B0C94000008951092610281E04E
:100B100080935F0210925E0261E082E10E941E09F2
:100B200061E083E10E941E09E9EBF0E080818E7FA5
:100B3000808380818D7F808388E48093B80085E402
:100B40008093BC0008950F93982F81E0413208F004
:100B50003FC0809161028111FCCF32E0309361028D
:100B600000935F023FEF3093F401109239024093FB
:100B70003802AAE3B2E0FB013E2F361B341750F1D6
:100B80001092600230916002990F932B9093600253
:100B900090915E02913009F510925E029091600290
:100BA0009093BB0095EC9093BC00222321F0909190
:100BB00061029230D1F39091F4019F3F49F080910E
:100BC000F401803261F08091F401803351F084E0CF
:100BD0000F91089531913D93CFCF95EEE4CF82E010
:100BE000F7CF83E0F5CF792F613278F490916102ED
:100BF000943069F460931602462F50E0682F88E124
:100C000092E00E94192B80E0089581E0089582E02F
:100C10000895882321F085EC8093BC00089585E831
:100C2000FBCF85ED8093BC008091BC0084FDFCCFA0
:100C300010926102089585EC8093BC0010926102CD
:100C400008951F920F920FB60F9211242F933F9386
:100C50004F935F936F937F938F939F93AF93BF93C4
:100C6000EF93FF939091B900892F887F803509F425
:100C7000C5C008F044C0803309F4BBC098F5883182
:100C800001F1D0F4883009F4ACC0803109F4A9C076
:100C9000882309F4F2C0FF91EF91BF91AF919F912A
:100CA0008F917F916F915F914F913F912F910F9015
:100CB0000FBE0F901F901895803209F49AC08832A9
:100CC00051F79091390280913802981790F5E09190
:100CD000390281E08E0F80933902F0E0E65CFD4F2F
:100CE000808181C0803409F495C0883409F483C0C0
:100CF000883389F68093F4010E941B06CCCF803A9A
:100D000009F4A2C0C0F5803809F48CC058F58036CB
:100D100019F1E0F4883509F0BECFE091390281E0A5
:100D20008E0F809339028091BB00F0E0E65CFD4FAE
:100D3000808380915F0281115EC081E080935E02BA
:100D400084EA8093BC0010926102A5CF803721F025
:100D5000987E983609F09FCF83E0809361021092CD
:100D6000F50143C0803909F45DC0987E983809F0D8
:100D700092CF80E03BC0883BD9F058F5883A19F013
:100D8000803B09F088CF84E08093610210921702C3
:100D900010921602E0915C02F0915D02099580913B
:100DA0001602811105C081E080931602109218028C
:100DB000E091170281E08E0F80931702F0E0E85E69
:100DC000FD4F80818093BB009091170280911602A5
:100DD00025C0907F903C09F05ECF81E00E9409061B
:100DE000B2CF809160028093BB0081E00E9409062F
:100DF00052CF8093F4010E9411064DCFE091390249
:100E000081E08E0F809339028091BB00F0E0E65CB8
:100E1000FD4F80839091390280913802981708F035
:100E2000A8CFE3CF8091F501803208F0A2CFE09106
:100E3000F50181E08E0F8093F5018091BB00F0E019
:100E4000EA50FE4F8083D1CF8091F501803230F49B
:100E5000E091F501F0E0EA50FE4F10820E94110689
:100E60006091F50170E0E0915A02F0915B0286EF2B
:100E700091E009951092F5013FCF1092F401BBCF9C
:100E800008951F920F920FB60F9211242F933F9344
:100E90004F935F936F937F938F939F93AF93BF9382
:100EA000EF93FF93E0910601F09107010995FF91FF
:100EB000EF91BF91AF919F918F917F916F915F91D2
:100EC0004F913F912F910F900FBE0F901F9018954B
:100ED0001F920F920FB60F9211242F933F934F93AF
:100EE0005F936F937F938F939F93AF93BF93EF9392
:100EF000FF93E0910801F09109010995FF91EF91AD
:100F0000BF91AF919F918F917F916F915F914F9121
:100F10003F912F910F900FBE0F901F9018951F9229
:100F20001FB61F9211242F933F938F939F93AF93DC
:100F3000BF938091630290916402A0916502B09189
:100F400066023091620223E0230F2D3750F501969F
:100F5000A11DB11D209362028093630290936402ED
:100F6000A0936502B0936602809167029091680237
:100F7000A0916902B0916A020196A11DB11D8093F2
:100F8000670290936802A0936902B0936A02BF91CE
:100F9000AF919F918F913F912F911F901FBE1F90F6
:100FA000189526E8230F0296A11DB11DD3CFCF932C
:100FB000DF9300D000D0CDB7DEB78FB7F894209183
:100FC0006302309164024091650250916602298368
:100FD0003A834B835C838FBF69817A818B819C814B
:100FE0000F900F900F900F90DF91CF910895CF93B6
:100FF000DF9300D000D0CDB7DEB73FB7F894809133
:10100000670290916802A0916902B0916A0226B5C8
:10101000A89B05C02F3F19F00196A11DB11D3FBF30
:10102000BA2FA92F982F8827820F911DA11DB11DBE
:101030009C01AD0162E0220F331F441F551F6A95CA
:10104000D1F7CA01B9010F900F900F900F90DF9167
:10105000CF9108958F929F92AF92BF92CF92DF92DD
:10106000EF92FF92CF93DF9300D000D0CDB7DEB7E1
:101070006B017C010E94F7074B015C01C114D10494
:10108000E104F10479F40F900F900F900F90DF912D
:10109000CF91FF90EF90DF90CF90BF90AF909F9057
:1010A0008F9008950E9484050E94F707DC01CB0110
:1010B00088199909AA09BB09883E9340A105B10581
:1010C000E8F221E0C21AD108E108F10888EE880EA2
:1010D00083E0981EA11CB11CC114D104E104F104E9
:1010E00019F7CCCF8230910538F0880F991F880FFF
:1010F000991F05970197F1F70895789484B5826058
:1011000084BD84B5816084BD85B5826085BD85B5AB
:10111000816085BDEEE6F0E0808181608083E1E85A
:10112000F0E0108280818260808380818160808392
:10113000E0E8F0E0808181608083E1EBF0E0808195
:1011400084608083E0EBF0E0808181608083EAE767
:10115000F0E08081846080838081826080838081F0
:10116000816080838081806880831092C1000895AF
:10117000843099F038F48230C1F0833041F081300E
:1011800081F008958730A1F08830C1F008958091F2
:1011900080008F77809380000895809180008F7DFC
:1011A000F9CF84B58F7784BD089584B58F7DFBCF4B
:1011B0008091B0008F778093B00008958091B00047
:1011C0008F7DF9CFCF93DF9390E0FC01E458FF4F80
:1011D000249180579F4FFC0184918823C9F090E0AF
:1011E000880F991FFC01E854FF4FA591B491FC01B1
:1011F000E255FF4FC591D49161110DC09FB7F8948E
:101200008C91209582238C938881282328839FBFEB
:10121000DF91CF910895623051F49FB7F8943C91DB
:10122000822F809583238C93E8812E2BEFCF8FB76D
:10123000F894EC912E2B2C938FBFEACF1F93CF9372
:10124000DF93162F282F30E0F901E859FF4F8491E2
:10125000F901E458FF4FD491F901E057FF4FC491D1
:10126000CC23A1F081110E94B808EC2FF0E0EE0F22
:10127000FF1FE255FF4FA591B4918FB7F894EC9101
:10128000111108C0D095DE23DC938FBFDF91CF9181
:101290001F910895DE2BF8CFCF93DF93282F30E0F6
:1012A000F901E859FF4F8491F901E458FF4FD491B7
:1012B000F901E057FF4FC491CC2379F081110E94CE
:1012C000B808EC2FF0E0EE0FFF1FEC55FF4FA59193
:1012D000B491EC91ED2381E009F480E090E0DF919E
:1012E000CF9108950E94142B90E080E00895089516
:1012F0002F923F924F925F926F927F928F929F9226
:10130000AF92BF92CF92DF92EF92FF920F931F9313
:10131000CF93DF9300D000D000D0CDB7DEB7898364
:101320009A836D837E836A015901C8014801841A3A
:10133000950A97FE03C091948194910835012D81FF
:101340003E81621A730A77FE03C07194619471083A
:10135000681479045CF43A2D2B2D5C01832F922FB5
:101360003D812E81DE82CD82C32ED22EAD81BE8103
:10137000AA16BB065CF43C2D2D2D6C01832F922FF9
:101380003D812E81BE82AD82A32EB22E15012D810C
:101390003E81221A330A2C014C185D0857FE03C007
:1013A000519441945108810137FE02C00F5F1F4FD5
:1013B00015950795C816D90654F18FEF9FEF9C83BA
:1013C0008B832D813E81A216B30664F1A981BA8177
:1013D000ED91FC9111970484F585E02D9701681437
:1013E0007904D4F44D815E81B601CD0109950419CB
:1013F000150917FF06C02B813C81C20ED31E020DBA
:10140000131D8D819E8101969E838D83DACFA1E08D
:10141000B0E0BC83AB83D5CFA6016D817E8189818D
:101420009A81E4CF26960FB6F894DEBF0FBECDBFEB
:10143000DF91CF911F910F91FF90EF90DF90CF90B0
:10144000BF90AF909F908F907F906F905F904F90E4
:101450003F902F9008950895DC01ED91FC91008458
:10146000F185E02D09940F931F93DC01ED91FC9120
:10147000048CF58DE02D09951F910F9108950F9320
:101480001F93DC01ED91FC91068CF78DE02D099501
:101490001F910F910895EF92FF920F931F93DC011C
:1014A000ED91FC9100A0F1A1E02D09951F910F9104
:1014B000FF90EF9008958F929F92AF92BF92CF923C
:1014C000DF92EF92FF920F931F93CF93DF93EC0184
:1014D0004B015A0169017801E881F9810284F385A1
:1014E000E02D0995CA0CDB1C860101501109E88129
:1014F000F9810488F589E02D9401A501B401CE019C
:101500000995E881F9810688F789E02DCE01DF9100
:10151000CF911F910F91FF90EF90DF90CF90BF90F0
:10152000AF909F908F9009948F929F92AF92BF92AD
:10153000CF92DF92EF92FF920F931F93CF93DF939F
:10154000EC015B014A0169017801E881F9810284BB
:10155000F385E02D099595012C0D3D1D2150310994
:10156000E881F9810488F589E02D8401A401B501A1
:10157000CE010995E881F9810688F789E02DCE0131
:10158000DF91CF911F910F91FF90EF90DF90CF905F
:10159000BF90AF909F908F9009944F925F926F92FF
:1015A0007F928F929F92AF92BF92CF92DF92EF92F3
:1015B000FF920F931F93CF93DF93EC012B014A010E
:1015C00059013801E881F9810284F385E02D0995FC
:1015D0006201A40CB51CE881F981CA14DB046CF427
:1015E0000088F189E02D87019301A401B601CE01A5
:1015F00009958FEFC81AD80AEECF0688F789E02D33
:10160000CE01DF91CF911F910F91FF90EF90DF906E
:10161000CF90BF90AF909F908F907F906F905F9092
:101620004F900994EF92FF920F931F93DC017B017F
:101630001A960D911C911B9718962D913C91199714
:10164000ED91FC9100A0F1A1E02D50E040E070E0B0
:1016500060E009951F910F91FF90EF9008956F92B0
:101660007F928F929F92AF92BF92CF92DF92EF9232
:10167000FF920F931F93CF93DF933C015B014A01CD
:10168000E90168018701DC01ED91FC9162177307A4
:1016900011F5C416D50624F4892D4601C42ED82E82
:1016A0009601281939092F5F3F4F048CF58DE02DE5
:1016B000A401B501C3010995DF91CF911F910F914D
:1016C000FF90EF90DF90CF90BF90AF909F908F9062
:1016D0007F906F9008954C155D0581F426173707AC
:1016E00024F48B2D5901C62FD82F9E012A193B09AE
:1016F0002F5F3F4F068CF78DE02DDACF0284F38504
:10170000E02D0995D301ED91FC910488F589E02D38
:1017100086019E01A401B501C3010995D301ED9194
:10172000FC910688F789E02DC301DF91CF911F91CD
:101730000F91FF90EF90DF90CF90BF90AF909F9070
:101740008F907F906F9009946F927F928F929F926B
:10175000AF92BF92CF92DF92EF92FF920F931F93BF
:10176000CF93DF93EC016B015A0139014801E88105
:10177000F9810284F385E02D0995E881F9810288D9
:10178000F389E02D87019301A501B601CE010995EA
:10179000A501480D591D41505109E881F981028880
:1017A000F389E02D9301B601CE010995E881F98115
:1017B0000088F189E02D9401A501B601CE010995BB
:1017C000B601660D771D61507109E881F9810088C5
:1017D000F189E02D9401A501CE010995E881F981F7
:1017E0000688F789E02DCE01DF91CF911F910F91EF
:1017F000FF90EF90DF90CF90BF90AF909F908F9031
:101800007F906F9009940895FC01862F8370868BDA
:10181000848195812681378160FD05C0918780870D
:101820003387228708953187208793878287089599
:10183000FC01138212828EE091E0918380836483A5
:101840007583468357836087718742875387168ADB
:10185000158614861786168681E0858B848B2FEF7C
:101860003FEF338B228B318B208B878B108E128E28
:10187000118E08953F924F925F926F927F928F9256
:101880009F92AF92BF92CF92DF92EF92FF920F930F
:101890001F93CF93DF93CDB7DEB72A970FB6F89497
:1018A000DEBF0FBECDBF89879A8769837A834B835A
:1018B0005C832D833E8358012701A985BA85ED916C
:1018C000FC9111970284F385E02DCD010995C801A3
:1018D000079697FD07969C0193E0359527959A9575
:1018E000E1F738872F83912C812CF12CE12C312CBE
:1018F0006B807C806E0C7F1CE414F504ACF510E06A
:1019000000E00A151B0544F5C80187709927330CC0
:10191000892B69F4F80183E0F595E7958A95E1F75D
:10192000E80DF91D8D819E81E80FF91F349037FE77
:1019300010C0A985BA85ED91FC9111970484F585B5
:10194000E02D9601A30169817A81600F711FCD019D
:1019500009950F5F1F4FD5CFBFEFEB1AFB0A2F8101
:101960003885820E931EC4CFA985BA85ED91FC916E
:1019700011970688F789E02DCD012A960FB6F894C5
:10198000DEBF0FBECDBFDF91CF911F910F91FF90B2
:10199000EF90DF90CF90BF90AF909F908F907F900F
:1019A0006F905F904F903F9009942F923F924F928B
:1019B0005F926F927F928F929F92AF92BF92CF92DF
:1019C000DF92EF92FF920F931F93CF93DF93CDB7E8
:1019D000DEB76C970FB6F894DEBF0FBECDBF8B8F0E
:1019E0009C8F69837A832A01D22E0D831E8347013F
:1019F000CB82AC82AB8DBC8D59964D915C915A9740
:101A00004115510509F01DC118968D919C911997AA
:101A1000E981FA81E817F9070CF0E4C11A968D9173
:101A20009C911B97481659060CF0DCC12C2C312CCC
:101A300026E0C29EE00DF11D1124FE87ED871E16E3
:101A40001F060CF0CFC14A2D50E0588B4F8788E01D
:101A5000A89EB00111247A8B698BCB01840D951D52
:101A6000181619060CF0BEC158968C91811104C04D
:101A70007FEA7D1508F4D394AB8DBC8DED91FC917C
:101A800011970284F385E02DCD010995B5E0DB9E29
:101A900090011124F901EE53FF4FFC87EB873B8146
:101AA000232F30E03E8B2D8BA980BA80A5014B5FA0
:101AB0005F4F5C8B4B8B35017C81672F70E07A8F99
:101AC000698FC2010896988F8F8BEB85FC85F49106
:101AD000F98758864F826201AB8DBC8DED91FC91E8
:101AE000B985B0FF88C02B81213009F075C03C81D9
:101AF000313009F071C00484F585E02D2D813E81DF
:101B0000A601B3018B8D9C8D099579857695798792
:101B10008F819885A98DBA8D8A0F9B1F98878F8397
:101B2000BFEFCB1ADB0AEF89F88DEC15FD05A1F6A6
:101B30002B853C852F5F3F4F3C872B874D895E89E6
:101B4000A40EB51E5FEF651A750A6B897C89661550
:101B5000770509F0BACF8D819E8188159905D1F05E
:101B6000AB8DBC8DED91FC91BB81B13009F059C0BA
:101B70002C81213009F055C069817A816B5F7F4FDC
:101B80000088F189E02D840128E030E0A2018B8DEE
:101B90009C8D0995AB8DBC8DED91FC9111970688BC
:101BA000F789E02DCD016C960FB6F894DEBF0FBE1D
:101BB000CDBFDF91CF911F910F91FF90EF90DF90FC
:101BC000CF90BF90AF909F908F907F906F905F90DD
:101BD0004F903F902F9009940684F785E02DED807B
:101BE000FE800F85188991014F815885B5018B8D35
:101BF0009C8D09958ACF4D815E814815590509F460
:101C000084CF5B81513041F46C81613029F40484CC
:101C1000F585E02D940174CF0684F785E02D7401DD
:101C2000E0CF6D857E85621973090684F785E02D06
:101C3000740109891A899101A2018B8D9C8D0995E6
:101C4000A9CFFA0134969491329725913491D91AFB
:101C5000B7E0DB9E200D311D1124FA01459154910E
:101C60005C8B4B8BF90125903490F901329684906E
:101C700031965491598B3296B490319674906B8111
:101C8000623020F47C81723008F484C08B2D0B2CE0
:101C9000000C990B9A878987A72D072C000CBB0B8A
:101CA000BC87AB87AB8DBC8DED91FC911197028405
:101CB000F385E02DCD010995612CD12C912CFC816F
:101CC000EF2FF0E0FE87ED873B81232F30E0388750
:101CD0002F83A201470D511D77FC5A95588F4F8BCA
:101CE00069817A816B0D711DB7FC7A957A8F698F46
:101CF000BF80C8847989971608F04CCF292D30E031
:101D00004B855C85420F531FAD85BE854A9FC00140
:101D10004B9F900D5A9F900D1124FC01E40DF51D71
:101D2000F88BEF87862D712C4F89588D420F531FEA
:101D30005E8B4D8B781408F052C0AA24A394A80E91
:101D4000877041F4C1010196EB89FC89E20DF31D16
:101D5000D4901C01D7FE1AC0AB8DBC8DED91FC91C7
:101D6000672D70E0BB81B130D1F42C812130B9F402
:101D7000498D5A8D640F751F0484F585E02D2D81E2
:101D80003E814D895E898B8D9C8D0995DD0C739408
:101D90008A2DD0CF1C861B861A86198683CF89850B
:101DA0009A85680F791FAF81B8856A9FC0016B9FC4
:101DB000900D7A9F900D112469817A81680F791FA7
:101DC0000684F785E02DED80FE800D851E852B2D88
:101DD0003C2D4F8558898B8D9C8D0995D7CF680CEC
:101DE000939488CF6C960FB6F894DEBF0FBECDBF2C
:101DF000DF91CF911F910F91FF90EF90DF90CF90E7
:101E0000BF90AF909F908F907F906F905F904F901A
:101E10003F902F9008958F929F92AF92CF92EF9222
:101E2000FF920F931F93CF93DF93EC01262F898DA1
:101E30009A8D009709F051C06A30D1F41D861C8636
:101E40008D8948E0849F900111248E859F85820FA3
:101E5000931F9F878E8781E090E0DF91CF911F9144
:101E60000F91FF90EF90CF90AF909F908F9008953B
:101E70006D3089F3CC88AD888F898823C1F08C853B
:101E80009D8536E0C39E800D911D1124488559859E
:101E90004817590764F44E855F851D861C8638E017
:101EA000A39EC0011124840F951F9F878E87EA8807
:101EB000FB88088919894E855F856C857D85CE01F3
:101EC0000E94D50C2C898C859D8546E0249F800D31
:101ED000911D11249D878C87BECF6A3069F41D86C1
:101EE0001C86FC013896E4912D898E859F85E29FA2
:101EF000800D911D1124ADCF6D3009F4ACCFFC01E4
:101F000034963491631708F4A6CF3296E491E6171D
:101F100008F4A1CFFC01329685909490462F431B84
:101F2000342F47E0349F800C911C1124F401329629
:101F300034913196E4913323A9F1EE2399F1CC88C1
:101F4000F4013596E491AD884F89442301F10E2EBA
:101F5000000CFF0BE30FF11DCE9EA001CF9E500D94
:101F600011246C857D85460F571F68857985641718
:101F700075076CF44E855F851D861C86FC013896BE
:101F8000E491AE9E400D511D11245F874E87EA8873
:101F9000FB88088919894E855F856C857D85CE0112
:101FA0000E94D50CF4013496E4912C898C859D8592
:101FB000E29F800D911D11248DCFFC01611101C0A4
:101FC00061E0648B411101C041E0458B0895462FCB
:101FD0000C94DD0F20911003222381F03FB7F89479
:101FE00020911003213069F42DB320930E034DB3DB
:101FF00020910F03209524232DBB3FBF8CBD9DBD99
:10200000089530930E03FACF80911003882361F076
:102010009FB7F8942091100380910E03213019F49A
:102020008DBB9FBF08958FBF0895FC01DB01CA01DE
:10203000A90177FD89C020853185621773070CF0EF
:1020400083C097FD81C022853385821793070CF0EA
:102050007BC026892230E9F1233009F449C02130C0
:1020600039F424813581281B390BCB01D901119713
:102070004130510509F444C04230510509F465C0AE
:10208000452B09F061C09C0197FF02C0295F3F4FBB
:1020900053E0359527955A95E1F764817581269F20
:1020A000A001279F500D369F500D11244A0F5B1F32
:1020B000A78DB0A1A40FB51F9C012770332781E025
:1020C00090E001C0880F2A95EAF780959C918923BA
:1020D0003AC024813581B9016A1B7B0BDB01119762
:1020E00026813781B901681B790BCB010197C0CFDD
:1020F00026813781261B370BDC01C9010197B8CF38
:102100009C0197FF02C0295F3F4F63E035952795FB
:102110006A95E1F764817581269FA001279F500D84
:10212000369F500D11244A0F5B1FA78DB0A1A40F3D
:10213000B51F8770992721E030E001C0220F8A95F2
:10214000EAF78C91822B8C9308959C0197FF02C033
:10215000295F3F4F43E0359527954A95E1F7648124
:102160007581269FA001279F500D369F500D112489
:102170004A0F5B1FA78DB0A1A40FB51F87709927C9
:1021800021E030E001C0220F8A95EAF78C91822786
:10219000DACF8EBD00000DB407FEFDCF8EB50895D9
:1021A0001F93CF93DF93EC01162F40E250E060E8DD
:1021B00070E00E94180C8AE391E0998388831C8E5A
:1021C0001B8E89E193E09E8F8D8F18A21F8E8FEF5B
:1021D0008CA38DA38EA38FA318A780E58EAB1FAA17
:1021E000DF91CF911F910895FC01878D90A10097F9
:1021F00011F00C94822A08951F93CF93DF93EC0182
:10220000162F8D8D9E8D009709F169A1062E000C69
:10221000770B0E9401238D8D9E8DDC01ED91FC9149
:102220000190F081E02D60E009958D8D9E8DDC019F
:10223000ED91FC910190F081E02D612F09958D8D3C
:102240009E8DDF91CF911F910C941623EDA5FEA5D5
:1022500090818BA98095892380838B8D9C8D892B80
:1022600031F0862FDF91CF911F910C94C91028E097
:1022700030E080E8E9A5FAA599A9412F4823C1F0EB
:102280004081942B9083EBA5FCA590814AA9942BC7
:102290009083EBA5FCA540819AA990959423908307
:1022A00086952150310931F7DF91CF911F91089523
:1022B000408190959423E6CF1F93CF93DF93EC0159
:1022C000162F8D8D9E8D892B79F48B8D9C8D892B6E
:1022D00021F08EA99FA90E94EA0FEFA5F8A990818D
:1022E0008CA980958923808366EA111167EACE0163
:1022F0000E94FC108D8D9E8D892B79F4EFA5F8A995
:1023000080819CA9892B80838B8D9C8D892B29F0C2
:10231000DF91CF911F910C940410DF91CF911F9109
:102320000895DF92EF92FF920F931F93CF93DF9365
:10233000EC01162FD72E042F8D8D9E8D009709F45A
:102340004BC069A1062E000C770B0E9401238D8DD6
:102350009E8DDC01ED91FC910190F081E02D60E01B
:102360000995E12EFD2CDD24D394100F8D8D9E8DCB
:102370001E1549F1BFE1BD15B0F40E94162369A1F5
:10238000062E000C770B8D8D9E8D0E9401238D8D66
:102390009E8DDC01ED91FC910190F081E02D60E0DB
:1023A0000995DD24D3948D8D9E8DF7016491DC0118
:1023B000ED91FC910190F081E02D0995D394BFEF50
:1023C000EB1AFB0AD3CFDF91CF911F910F91FF90B2
:1023D000EF90DF900C941623EDA5FEA590818BA9BC
:1023E000809589238083E62EF72E140F1E1571F138
:1023F000F70184912B8D3C8D232B31F00E94C91065
:10240000EFEFEE1AFE0AF2CF28E030E040E8E9A54F
:10241000FAA599A9582F5423A9F05081952B9083A0
:10242000EBA5FCA590815AA9952B9083EBA5FCA563
:1024300050819AA990959523908346952150310912
:1024400031F7DECF508190959523E9CFDF91CF9181
:102450001F910F91FF90EF90DF900895FC0126816E
:102460003781C901079697FD079623E095958795D3
:102470002A95E1F724813581829FA001839F500D29
:10248000929F500D112470E060E0878D90A10C9414
:10249000222B8F929F92AF92BF92CF92DF92EF92B8
:1024A000FF920F931F93CF93DF93EC01862EB42EF0
:1024B000A22E902E8F8D98A1892B31F1CE010E94F2
:1024C0002E128E819F816C817D8181329105D4F5A0
:1024D000AC014052510957FF02C04F5F5F4F559505
:1024E00047956357710977FF02C06F5F7F4F7595FE
:1024F0006795CC24C394D12CA0E2EA2EF12C03E7FB
:1025000010E029EE35E039C02E813F81C9010796E0
:1025100097FD079623E0959587952A95E1F72C81FD
:102520003D81AC01429FC001439F900D529F900D91
:1025300011240E94EC2998A38F8F892B09F0BECF1C
:1025400080E0C3C0AC014054510957FF02C04F5F47
:102550005F4F559547956255710977FF02C06F5FD0
:102560007F4F75956795CC24C394D12C80E4E82ED9
:10257000F12C02E510E029EC37E0CE010E943A0C84
:102580008AA28D8D9E8D009709F4ACC04B2DB110A1
:1025900007C02E813F814DE32032310509F44CE321
:1025A00049A3992009F438C10E94ED22AA20F1F034
:1025B00088A587FD1BC061E00E94E20861E088A554
:1025C0000E941E0961E070E080E090E00E942A080D
:1025D00060E088A50E941E096AE070E080E090E05B
:1025E0000E942A0861E088A50E941E098D8D9E8D9B
:1025F000892B79F48B8D9C8D892B21F08EA99FA935
:102600000E94EA0FEFA5F8A990818CA980958923F3
:10261000808344E065EE75E0CE010E9491116E81E9
:102620006150CE010E94FC1044E061EE75E0CE01E5
:102630000E9491118AA164E1813009F460E1CE0128
:102640000E94FC1044E06DED75E0CE010E949111F6
:102650008FE88DAB8C819D818038910509F0BEC0DB
:102660008E819F818034910509F0C4C08AA1813098
:1026700009F4B2C08FEC8DAB12E16AEDCE010E947D
:10268000FC10612FCE010E94FC1061E8CE010E9477
:10269000FC106DA9CE010E94FC1069EDCE010E94D4
:1026A000FC108AA161EF813009F462E2CE010E9440
:1026B000FC1046E067ED75E0CE010E9491118D8D12
:1026C0009E8D892B09F49AC081E0DF91CF911F91F3
:1026D0000F91FF90EF90DF90CF90BF90AF909F90C1
:1026E0008F90089561E08EA10E94E20861E08FA1C1
:1026F0000E94E2088EA1082E000C990BFC01E05705
:10270000FF4FE491F0E0EE0FFF1FE255FF4F2591E0
:1027100034913EA72DA7FC01E458FF4FE491EBABA9
:102720008FA1082E000C990BFC01E057FF4FE4919C
:10273000F0E0EE0FFF1FE255FF4FA591B491B8AB4B
:10274000AFA7FC01E458FF4FE491ECAB8C91E82B70
:10275000EC938B8D9C8D892B31F0992009F426CF39
:102760000E94A12023CF61E08CA10E94E20861E0D9
:102770008DA10E94E2088CA1082E000C990BFC018F
:10278000E057FF4FE491F0E0EE0FFF1FE255FF4FDF
:10279000259134913AA729A7FC01E458FF4FE49111
:1027A000E9AB8DA1082E000C990BFC01E057FF4FFF
:1027B000E491F0E0EE0FFF1FE255FF4FA591B491B9
:1027C000BCA7ABA7FC01E458FF4FE491EAAB8C91A6
:1027D000E095E823EC93EACE8FE94DCF8036910562
:1027E00049F48E819F81409729F48AA1813021F09C
:1027F0008FEA8DAB12E041CF80E1FBCFEFA5F8A9C6
:1028000080819CA9892B80838B8D9C8D892B09F4D9
:102810005BCF0E94041058CFA110CACEFACE0F93FE
:102820001F93CF93DF93EC01DB01BA01C901A8012B
:1028300077FD61C02E813F81621773070CF05BC08A
:10284000FD01E80FF91FB7FF03C0CF01B0E0A0E022
:102850002C813D812E173F071CF4C9018A1B9B0B5D
:10286000181619060CF047C08B01E3E01595079583
:10287000EA95E1F7029FF001039FF00D129FF00D22
:102880001124AE0FBF1FEF8DF8A1EA0FFB1F677079
:10289000772721E030E001C0220F6A95EAF7622F26
:1028A00041305105E1F04230510571F0452B19F5E9
:1028B00020958E0F9F1F8E179F07E9F0DF013D9136
:1028C00032233083FD01F7CF8E0F9F1FE817F907E2
:1028D00091F0DF012D9126272083FD01F7CF9F0185
:1028E000280F391FE217F30731F0DF019D91962B76
:1028F0009083FD01F7CFDF91CF911F910F91089544
:102900000F931F93CF93DF93EC01FB01BA01A90151
:102910009801F7FD93C00C811D81E017F1070CF0C1
:102920008DC0DB01A40FB51F77FF03C0AD0170E0C0
:1029300060E08E819F818A179B071CF4AC01461BC7
:10294000570B141615060CF079C0842F962F969508
:1029500096959695909FD001919FB00D1124EA0F06
:10296000FB1FAF8DB8A1AE0FBF1F677061F198E07C
:10297000961B692F092F10E0F801E153FA4FE491FB
:10298000491750F4041B11094FEF50E002C0559550
:1029900047950A95E2F7E4232130310551F02230C2
:1029A0003105B1F12115310539F4E0959C91E92308
:1029B00002C09C91E92BEC93861708F43FC04C8130
:1029C0005D81A40FB51FE82FE61BE83078F02230B8
:1029D000310509F58E2F9C9190959C934C815D81DA
:1029E000A40FB51F88508830B0F7E770EE2331F19F
:1029F000F0E0E953FA4FE49121303105E1F0223063
:102A0000310509F1232BD1F4E0958C91E82315C011
:102A10009C91E927D0CF81E02115310509F480E0B0
:102A200081959E2F8C934C815D81A40FB51F98508A
:102A30009830C0F7DACF8C91E82BEC93DF91CF91EF
:102A40001F910F9108958C91E827F7CF0F931F9353
:102A5000FC01CA014689423089F0433029F14130F6
:102A6000E1F444815581DA01A81BB90BCD0101972E
:102A7000AB01BC01CF010E94801413C04681578175
:102A8000DA01A81BB90BCD01019744815581DA0108
:102A9000A61BB70BBD01621B730BAC01CF010E94DB
:102AA0000F141F910F91089546815781DA01A61BDB
:102AB000B70BBD01621B730BDBCF0F931F93FC01A0
:102AC000CA014689423091F0433039F14130F1F486
:102AD00044815581DA01A81BB90BCD01821B930BF0
:102AE000AB01BC01CF010E940F1414C04481558179
:102AF000DA01A61BB70BBD016150710946815781F0
:102B0000DA01A81BB90BCD01821B930BAC01CF01DD
:102B10000E9480141F910F91089546815781DA0118
:102B2000A61BB70BBD0161507109DACFDF92EF929E
:102B3000FF920F931F93CF93DF93EC018D8D9E8DAA
:102B4000892B79F48B8D9C8D892B21F08EA99FA9DF
:102B50000E94EA0FEFA5F8A990818CA9809589239E
:102B6000808345E062EC75E0CE010E9491116C819A
:102B70006150CE010E94FC102E813F81C901079651
:102B800097FD079623E0959587952A95E1F72C8187
:102B90003D81829F7001839FF00C929FF00C112465
:102BA0000F8D18A18D8D9E8DE00EF11E009709F4FA
:102BB00059C069A1062E000C770B0E9401238D8D50
:102BC0009E8DDC01ED91FC910190F081E02D60E49F
:102BD0000995DD24D3948D8D9E8D0E151F0539F139
:102BE000BFE1BD15B0F40E94162369A1062E000CAA
:102BF000770B8D8D9E8D0E9401238D8D9E8DDC0126
:102C0000ED91FC910190F081E02D60E40995DD24C7
:102C1000D3948D8D9E8DDC01ED91FC910190F0811E
:102C2000E02DD8016D918D010995D394D4CF0E94E8
:102C300016238D8D9E8D892B09F049C0EFA5F8A92B
:102C400080819CA9892B80838B8D9C8D892B09F495
:102C50003EC0DF91CF911F910F91FF90EF90DF90D9
:102C60000C940410EDA5FEA580819BA9892B80837F
:102C70000E151F05F1F2F80181918F012B8D3C8D0E
:102C8000232B19F00E94C910F3CF28E030E040E870
:102C9000E9A5FAA599A9582F5423A9F05081952B9D
:102CA0009083EBA5FCA590815AA9952B9083EBA569
:102CB000FCA550819AA99095952390834695215023
:102CC000310931F7D5CF508190959523E9CFDF9128
:102CD000CF911F910F91FF90EF90DF900895FB012E
:102CE000908181E0983261F030F4903151F092326D
:102CF00031F080E008959B3311F09234D1F70895BC
:102D000008950895FC0177836683148215821082EA
:102D100089E0818381E0828383830895CF93DF9369
:102D2000EB0167E0CE010E947A1E982F81E02F818F
:102D3000291380E0DF91CF910895EF92FF920F93D6
:102D40001F93CF93DF93EC018B01E42E8E819F8143
:102D50000E94CA1DF12C41E0B8018E819F810E9422
:102D6000F81D882329F0EF1429F0F394EF1498F755
:102D700080E006C0B801CE010E948E168823A9F318
:102D8000DF91CF911F910F91FF90EF900895EF92F7
:102D9000FF920F931F93CF93DF93EC018B017A0186
:102DA0008E819F810E94BB1C882309F1B8018E810E
:102DB0009F810E94AB1D40E06EEB8E819F810E943F
:102DC000581D870189E0E80EF11C8E819F810E94C9
:102DD0008D1DF80181938F01EE15FF05B1F78E81EE
:102DE0009F810E94BB1C982F81E0913009F080E008
:102DF000DF91CF911F910F91FF90EF900895CF93A6
:102E0000DF93EA010E94C716882349F068E0CE01EB
:102E10000E947A1E982F81E02885291380E0DF9197
:102E2000CF9108950F931F93CF93DF93EC018B0104
:102E30008E819F810E94BB1CB8018E819F810E9460
:102E4000AB1D40E064EB8E819F810E94581D8E81F6
:102E50009F810E942D1D182F8E819F810E94BB1C77
:102E600081E0111180E0DF91CF911F910F910895C2
:102E7000CF93DF93CDB7DEB729970FB6F894DEBFB7
:102E80000FBECDBFFB0120812031D9F0AE014F5FD5
:102E90005F4F0E94FF168823D1F08D818F3599F006
:102EA00070F48F3191F08F3391F48AE029960FB648
:102EB000F894DEBF0FBECDBFDF91CF9108958F375D
:102EC00031F48CE0F3CF8BE0F1CF89E0EFCF80E0FD
:102ED000EDCFBF92CF92DF92EF92FF920F931F93AD
:102EE000CF93DF93CDB7DEB728970FB6F894DEBF48
:102EF0000FBECDBF8C01FC01868197810E94CA1D47
:102F0000F80114821582CE0101967C0141E0B701DF
:102F1000F801868197810E94F81D6701882391F14D
:102F2000B701C8010E948E16882381F3F8018081C1
:102F3000811109C0B701C8010E941217882319F036
:102F400081E0F8018083F801B180B601C8010E94D8
:102F500038178B1590F4F8018181F8018183848101
:102F60008F5F8483B601C8010E946F16882371F2B7
:102F7000F80185818F5F8583C9CFB601C8010E94A2
:102F80003817EBCF28960FB6F894DEBF0FBECDBF33
:102F9000DF91CF911F910F91FF90EF90DF90CF9035
:102FA000BF900895FC01738B628B0895CF93DF93DC
:102FB000D82FC92F0E94821670E060E08D2F9C2FC1
:102FC000DF91CF910C94D217FC01818D228D90E07E
:102FD000805C9F4F821B91098F7399270895FC0194
:102FE000918D828D981731F0828DE80FF11D858DBE
:102FF00090E008958FEF9FEF0895FC01918D828DF1
:10300000981761F0828DDF01A80FB11D5D968C913C
:10301000928D9F5F9F73928F90E008958FEF9FEF47
:103020000895FC01538D448D252F30E0842F90E0CE
:10303000821B930B541710F0CF96089501970895B3
:1030400080E199E1892B49F080E090E0892B29F01B
:103050000E94101981110C9400000895FC01848DC8
:10306000DF01A80FB11DA35ABF4F2C91848D90E0B2
:1030700001968F739927848FA689B7892C93A0898D
:10308000B1898C91837080648C93938D848D981317
:1030900006C00288F389E02D80818F7D80830895AA
:1030A000CF93DF93EC01888D8823B9F0AA89BB897F
:1030B000E889F9898C9185FD03C0808186FD0DC06A
:1030C0000FB607FCF7CF8C9185FFF2CF808185FF8B
:1030D000EDCFCE010E942E18E9CFDF91CF91089558
:1030E000EF92FF920F931F93CF93DF93EC01F62E95
:1030F00081E0888F9B8D8C8D98131AC0E889F9899F
:10310000808185FF15C09FB7F894EE89FF896083A1
:10311000E889F98980818370806480839FBF81E022
:1031200090E0DF91CF911F910F91FF90EF90089564
:103130000B8D10E00F5F1F4F0F731127E02E8C8D4A
:103140008E110CC00FB607FCFACFE889F98980818F
:1031500085FFF5CFCE010E942E18F1CF8B8DFE0199
:10316000E80FF11DE35AFF4FF0829FB7F8940B8FE1
:10317000EA89FB8980818062D0CF2F932FB72F936C
:103180008F939F93EF93FF93E0917B02F0917C02EA
:103190008081E0918102F091820282FD19C09081CC
:1031A000809184028F5F8F7320918502821741F096
:1031B000E0918402F0E0E559FD4F958F8093840201
:1031C000FF91EF919F918F912F912FBF2F91189584
:1031D0008081F6CF1F920F920FB60F9211242F937A
:1031E0003F934F935F936F937F938F939F93AF938F
:1031F000BF93EF93FF938BE692E00E942E18FF910E
:10320000EF91BF91AF919F918F917F916F915F915E
:103210004F913F912F910F900FBE0F901F901895D7
:103220008BE692E00E94E4179C0181E0232B09F4D5
:1032300080E00895EBE6F2E01382128288EE93E0DC
:10324000A0E0B0E084839583A683B78386E691E00F
:103250009183808385EC90E09587848784EC90E06F
:103260009787868780EC90E0918B808B81EC90E053
:10327000938B828B82EC90E0958B848B86EC90E034
:10328000978B868B118E128E138E148E08958F92CB
:103290009F92AF92BF92CF92DF92EF92FF920F93E5
:1032A0001F93CF93DF938C01D62FC72F4C0182E061
:1032B000880E911C5801E5E0AE0EB11CD12CC12C3A
:1032C000F40161914F014AE050E08D2F9C2F0E9444
:1032D0004B1F7C016EE28D2F9C2F0E94DA1EE80EA0
:1032E000F91ECE0CDF1C8A149B0451F74AE050E013
:1032F000F80165818D2F9C2F0E944B1F8C0D9D1D09
:10330000DF91CF911F910F91FF90EF90DF90CF90C1
:10331000BF90AF909F908F9008950F93FC0188E726
:1033200091E09183808362834383248305830F919B
:1033300008950F9300E020E040E060E088E093E033
:103340000E948D190F9108950F93FC01648B458B9A
:10335000268B078B0F910895CF93DF93EC0160E0EC
:103360008E810E941E0981E090E00E94720861E057
:103370008E810E941E0981E090E00E94720860E048
:103380008E810E941E0984E690E0DF91CF910C941B
:103390007208CF92DF92EF92FF920F931F93CF9319
:1033A000DF93EC016C0187E0C80ED11C10E000E057
:1033B000E62EF12CB701002E02C0759567950A9490
:1033C000E2F76170F60181916F010E941E090F5FA3
:1033D0001F4F0430110571F7CE01DF91CF911F917E
:1033E0000F91FF90EF90DF90CF900C94AC19CF929B
:1033F000DF92EF92FF920F931F93CF93DF93EC0135
:103400006C0187E0C80ED11C10E000E0E62EF12C24
:10341000B701002E02C0759567950A94E2F76170B6
:10342000F60181916F010E941E090F5F1F4F083046
:10343000110571F7CE01DF91CF911F910F91FF9090
:10344000EF90DF90CF900C94AC191F93CF93DF9344
:10345000EC01162F642F8C810E941E098D818F3FF5
:1034600019F060E00E941E098F85612F84FF06C05D
:10347000CE01DF91CF911F910C94F71962956F7077
:10348000CE010E94C919612FCE01DF91CF911F910A
:103490000C94C91940E00C94251A61E00E944A1A64
:1034A00080ED97E00C947208FC01443008F043E092
:1034B0008389481710F04FEF480FDF01A40FB11DAB
:1034C00054968C91680F6068CF010C944A1AFC01E5
:1034D0006089862F8460808B6C60CF010C944A1ABF
:1034E000EF92FF920F931F93CF93DF93EC01F42E93
:1034F000E22E81E0841718F48F8588608F87FB8A1D
:10350000262F30E08901005C1F4F40E450E070E05E
:1035100060E0CE010E94A419EE2031F0E1E0FE123D
:1035200003C08F8584608F8761E08C810E94E208F0
:103530008D818F3F19F061E00E94E20861E08E8189
:103540000E94E2088E01095F1F4FF12CE12C8F854C
:1035500084FD0FC084E090E0E816F90664F461E0B1
:10356000F80181918F010E94E208FFEFEF1AFF0A34
:10357000EECF88E0F0CF80E593EC0E94720860E027
:103580008C810E941E0960E08E810E941E098D813F
:103590008F3F19F060E00E941E096F8564FD35C001
:1035A00063E0CE010E94C91984E991E10E9472088A
:1035B00063E0CE010E94C91984E991E10E9472087A
:1035C00063E0CE010E94C91986E990E00E9472086A
:1035D00062E0CE010E94C9196F856062CE010E942F
:1035E0004A1A84E0888BCE010E94671ACE010E949D
:1035F0004D1A82E0898B66E0CE01DF91CF911F9159
:103600000F91FF90EF900C944A1A6062CE010E94D5
:103610004A1A84E991E10E9472086F856062CE01C6
:103620000E944A1A86E990E00E9472086F856062E3
:10363000CE010E944A1AD0CF8F92AF92CF92EF92D2
:103640000F93CF93DF93CDB7DEB7FC015A853B854F
:103650009C858D85448325830683E782C086A18669
:1036600082865387348795878687662371F017860D
:1036700020E041E060E1CF01DF91CF910F91EF9029
:10368000CF90AF908F900C94701A80E18787F0CF25
:103690008F92AF92CF92EF920F93FC01AE2C8C2CB5
:1036A000138212828EE791E0918380831F921F9292
:1036B0001F921F92C02EE22E042F2FEF462F61E0A3
:1036C000CF010E941C1B0F900F900F900F900F9135
:1036D000EF90CF90AF908F90089541E00E94251A0F
:1036E00081E090E00895FC01138212828AE891E063
:1036F00091838083758364831782168282E090E0D1
:103700009387828784E090E0958784870895CF939C
:10371000DF93FC01EB0184E0CC0FDD1F8A95E1F71C
:103720004111C1602111C460868197811816190664
:103730000CF4C8606481758189E193E00E940123E3
:103740006C2F89E193E00E94812289E193E0DF916F
:10375000CF910C941623FC017783668320E041E02F
:1037600070E060E00C94871BFF920F931F93CF9340
:10377000DF93D82FC92F8B01F42E21E00E94871BE5
:1037800081E090E00E94720820E04F2DB8018D2F5B
:103790009C2F0E94871B85E290E0DF91CF911F91C3
:1037A0000F91FF900C947208FF920F931F93CF9389
:1037B000DF938C01EB01F42E84E0759567958A9573
:1037C000E1F76F707727C8010E94B41BBE016F70CC
:1037D00077274F2DC801DF91CF911F910F91FF9057
:1037E0000C94B41B40E061E070E00E94D41B80E4C4
:1037F00096E00C94720840E062E070E00E94D41BF6
:1038000080E496E00C9472081F93CF93DF93CDB7BA
:10381000DEB728970FB6F894DEBF0FBECDBF18E015
:10382000E0EBF1E09E012F5F3F4FD90101900D9237
:103830001A95E1F7440F551F240F351FF901208118
:103840003181620F731F606840E028960FB6F894CC
:10385000DEBF0FBECDBFDF91CF911F910C94D41B63
:10386000FC0164857585CB018460958784876C60D5
:1038700040E0CF010C94D41BFC0162857385CB0121
:10388000826093878287666040E0CF010C94D41BEE
:1038900070E041E00E94D41B81E090E008950F9316
:1038A0001F93CF93DF93EC015987488708E010E01E
:1038B0004230510514F410E000E089E193E00E94E9
:1038C000ED2220E040E070E060E0CE010E94871B26
:1038D00080E593EC0E94720884E090E09D878C87DD
:1038E00082E090E09B878A8740E063E070E0CE0151
:1038F0000E94B41B84E991E10E94720840E063E0F9
:1039000070E0CE010E94B41B88EC90E00E94720827
:1039100040E063E070E0CE010E94B41B88EC90E0D0
:103920000E94720840E062E070E0CE010E94B41B89
:10393000B801606240E0CE010E94D41BCE010E941B
:10394000301CCE010E94F21BCE01DF91CF911F915E
:103950000F910C943C1C08950E947D080E94AB1CA2
:103960000E94B425C0E2D8E10E9420262097E1F30E
:103970000E942018F9CFFF920F931F93CF93DF93EC
:10398000FC010081C181D281F8948981F02EF094EC
:103990008F21898378941DE7115029F182E090E00E
:1039A0000E94720888818023B9F3F8948A818F215C
:1039B0008A838981802B8983789480EE91E00E94AC
:1039C0007208F89489818F21898386E490E00E94AF
:1039D00072088881082311E009F010E078948AE9E0
:1039E00091E00E947208812FDF91CF911F910F917A
:1039F000FF9008951F93CF93DF93FC011081C18145
:103A0000D281912F909560FF16C0F8948A81892306
:103A10008A838981812B89838AE090E00E947208E1
:103A20008A81182B1A83789487E390E0DF91CF91F5
:103A30001F910C947208F8948A8189238A83898162
:103A4000812B898381E490E00E9472088A81182B7F
:103A50001A83789485E090E0E9CF0F931F93CF937A
:103A6000DF93FC011081C181D281F8948981812B7F
:103A700089838A81012F009580238A8383E090E0E7
:103A80000E9472088981802389838AE090E00E94E5
:103A90007208C881789485E390E00E947208C1237F
:103AA00081E009F480E0DF91CF911F910F9108959B
:103AB000DF92EF92FF920F931F93CF93DF93EC016E
:103AC000D62E142F88E0E82EF12C01E061E08D2D38
:103AD000802309F460E0CE010E94FA1C000F81E00F
:103AE000E81AF10899F7111110C0F894E981FA81E8
:103AF00091818881809589238183E981FA819281EE
:103B000088818095892382837894DF91CF911F915A
:103B10000F91FF90EF90DF900895EF92FF920F9337
:103B20001F93CF93DF93F82EE92E08E010E0C0E05A
:103B3000D1E08F2D9E2D0E942D1D8111CD2BDD0FEB
:103B400001501109B1F78C2FDF91CF911F910F9187
:103B5000FF90EF900895EF92FF920F931F93CF93F2
:103B6000DF938C017B0140E065E50E94581DE70171
:103B700088E0E80EF11C699140E0C8010E94581DE0
:103B8000CE15DF05C1F7DF91CF911F910F91FF9007
:103B9000EF900895FC01138615861486339688E00D
:103BA000DF011D928A95E9F708951F93CF93DF9364
:103BB000EC01162F60E0812F0E94E208612F70E077
:103BC000FB01E458FF4FE491E883FB01E057FF4F0E
:103BD000E491F0E0EE0FFF1FEC55FF4F85919491BB
:103BE0009A838983CE01DF91CF911F910C94CA1DD6
:103BF000BF92CF92DF92EF92FF920F931F93CF93DA
:103C0000DF93EC01B62EC72E142F8D85811105C0D0
:103C1000CE010E94BB1C81110EC01B861D861C8616
:103C200080E0DF91CF911F910F91FF90EF90DF9097
:103C3000CF90BF90089540E06CEE111160EFCE017F
:103C40000E94581DFF24F394E12CD12C11E0CE01E9
:103C50000E942D1D082FCE010E942D1D0130C1F4A0
:103C6000813021F51134C8F2DB86D11002C081E029
:103C70008D878B81882389F22396EB2DFC2DCF0134
:103C80000896299121938E179F07D9F781E0C9CF14
:103C9000EE2DF0E0081326C08B851817E0F4DE0146
:103CA000AE0FBF1F13968C918F21B9F0FE01EE0D60
:103CB000F11D83818F29838301E0602FCE010E9453
:103CC000FA1C1F5FFF0C19F6E39488E0E81651F226
:103CD000FF24F394BCCF811749F3193008F41C87F3
:103CE000D12E00E0EC0FFD1F83819F2D909589233D
:103CF0008383E3CF9C0180E0620F6217A1F0D901BA
:103D0000ED918E27E82FEF70F0E0E757F54F949193
:103D100082958F70805FE82FF0E0E757F54F849130
:103D200089279D01EACF0895CF92DF92EF92FF920B
:103D30000F931F93CF93DF937C016A0110E000E0A3
:103D40000C151D0581F0EB01D701ED91FC9101905F
:103D5000F081E02D6991C7010995892B21F00F5F52
:103D60001F4FBE01EDCFC801DF91CF911F910F9181
:103D7000FF90EF90DF90CF900895CF93DF93EC0109
:103D8000DB01AB2B81F0FB0101900020E9F73197BB
:103D9000AF01461B570BE881F9810280F381E02DCA
:103DA000DF91CF91099490E080E0DF91CF91089569
:103DB0000C94BD1EDC01ED91FC910190F081E02D91
:103DC00009946F927F928F929F92AF92BF92CF92FF
:103DD000DF92EF92FF920F931F93CF93DF93CDB7B4
:103DE000DEB7A1970FB6F894DEBF0FBECDBF3C0182
:103DF000142F052F962E872E19A2223008F42AE0C0
:103E00005E0181E2A80EB11CC22ED12CF12CE12C56
:103E1000612F702F892D982DA70196010E94B0293E
:103E2000812F902FA92DB82D122F032F942E852E80
:103E30006A3014F5605DF50162935F018C159D0594
:103E4000AE05BF0528F7BF01C3010E94BD1EA196A4
:103E50000FB6F894DEBF0FBECDBFDF91CF911F919B
:103E60000F91FF90EF90DF90CF90BF90AF909F9019
:103E70008F907F906F900895695CDDCFF901EF2BF3
:103E800041F4DC01ED91FC910190F081E02D642F73
:103E900009940C94E11E9A01462F50E070E060E016
:103EA0000C943E1F9A01AB0170E060E00C943E1F41
:103EB0007F928F929F92AF92BF92CF92DF92EF92BA
:103EC000FF920F931F93CF93DF93CDB7DEB72A975F
:103ED0000FB6F894DEBF0FBECDBF8A879987CA019F
:103EE000DB0189839A83AB83BC83B22E9A01AB0139
:103EF000CB01B9010E94972968EB71E081112FC0B5
:103F000089819A81AB81BC81BF778D839E83AF838A
:103F1000B8872FEF3FEF4FE75FE7BC01CD010E946D
:103F2000972981110EC02FEF3FEF4FE75FE76D81BB
:103F30007E818F8198850E94C6276CEB71E01816F0
:103F400074F02FEF3FEF4FE75FE469817A818B8157
:103F50009C810E9425291816CCF460EC71E08A85BA
:103F600099852A960FB6F894DEBF0FBECDBFDF91BC
:103F7000CF911F910F91FF90EF90DF90CF90BF9066
:103F8000AF909F908F907F900C94D81E2FEF3FEFB3
:103F90004FE75FEC69817A818B819C810E94C62703
:103FA00087FDDBCF20E030E0A90169817A818B8138
:103FB0009C810E94C62710E000E087FF0FC06DE2E1
:103FC0008A8599850E94DA1E8C0189819A81AB814C
:103FD000BC81B05889839A83AB83BC83F12C60E0A9
:103FE00070E080E09FE3BF1481F020E030E040E229
:103FF00051E46D837E838F8398876D817E818F816D
:1040000098850E94CB27F394EECF29813A814B818A
:104010005C8169837A838B839C8369817A818B81BC
:104020009C810E945A2769837A838B839C83698150
:104030007A818B819C810E944428A62EC72ED82E7F
:10404000E92E0E9473289B01AC0169817A818B81E2
:104050009C810E945927762E872E982EF92E2AE0D1
:1040600030E04A2D5C2D6D2D7E2D8A8599850E942C
:104070003E1F080F191FBB2009F44CC06EE28A8551
:1040800099850E94DA1E080F191FBB2009F442C04F
:1040900020E030E040E251E479828A829B82FC8217
:1040A00069817A818B819C810E942A29762E872EB4
:1040B000982EA92E69837A838B839C8369817A8168
:1040C0008B819C810E9444286B014AE050E08A85E4
:1040D00099850E94521F080F191FC601B0E0A0E089
:1040E00089839A83AB83BC83B601CD010E94732878
:1040F0009B01AC0179828A829B82AC8269817A8140
:104100008B819C810E945927762E872E982EF92E1E
:10411000BA94BBCFC8012A960FB6F894DEBF0FBE83
:10412000CDBFDF91CF911F910F91FF90EF90DF9066
:10413000CF90BF90AF909F908F907F9008950C94F8
:10414000581FCF93CFB7F89480911103811127C0E6
:10415000EAE9F0E08491E6E8F0E09491E82FF0E0FD
:10416000EE0FFF1FE854FF4FA591B491EC91E923A6
:1041700021F461E08AE00E941E0961E08AE00E9469
:10418000E2088CB580618CBD8CB580648CBD61E02B
:104190008DE00E94E20861E08BE00E94E2088091DD
:1041A00011038F5F80931103CFBFCF910895CF93F9
:1041B000DF93EC01862F6C834D8361E00E94E2085F
:1041C00061E08D81DF91CF910C94E208CF93DF9372
:1041D000EC0161E08C810E941E0961E08D810E94EA
:1041E0001E0960E08D810E941E0960E08C81DF91D4
:1041F000CF910C941E09CF93DF93EC0160E08C818A
:104200000E941E0960E08D810E941E0961E08C8180
:104210000E941E0961E08D81DF91CF910C941E09EF
:10422000FC0140832183685762830895FC01638306
:104230000895E62FDC0113968C91811180E8EF3709
:1042400039F00E2E000CFF0BEC53FE4F9081890FBE
:10425000089582E390E00C9472080F931F93CF931C
:10426000DF93EC01162F08E060E08C810E941E09AC
:1042700061E010FF60E08D810E941E09159561E0EC
:104280008C810E941E09015079F760E08C810E94A8
:104290001E0961E08D810E941E0961E08C810E94EF
:1042A0001E0960E08D810E94E208CE010E94292152
:1042B0008D810E944C098C01811108C061E08D81C3
:1042C0000E94E20860E08D810E941E09CE010E94DA
:1042D000292161E08D810E94E208CE010E942921FE
:1042E000C8019927DF91CF911F910F9108950F93E6
:1042F0001F93CF93DF93EC01162F642F0E94192197
:10430000082FCE010E94E62064E4CE010E942D21F8
:10431000CE010E94FB20CE010E94E620612F606C3E
:10432000CE010E942D21602FCE010E942D21CE01B1
:104330000E94FB20CE010E94E6206A81CE010E94ED
:104340002D21CE01DF91CF911F910F910C94FB2075
:10435000CF93DF93D82FC92F4FE760E00E947721DA
:104360004FE761E08D2F9C2F0E9477214FE762E09D
:104370008D2F9C2F0E9477214FE763E08D2F9C2F7C
:10438000DF91CF910C9477210C94A821813039F0E2
:10439000823059F0811119C010926E0008958091F9
:1043A0006F008D7F80936F000895809170008D7FE6
:1043B0008093700081E08093B0008091B100887F8D
:1043C00084608093B1001092B3000895CF93C82FFA
:1043D00080919201C8130DC0E9EAFAE084919FEF41
:1043E000909392010E94C62160E08C2FCF910C9493
:1043F0001E098FEFF7CF1F920F920FB60F92112465
:104400002F933F934F935F936F937F938F939F93DC
:10441000AF93BF93EF93FF93809115039091160391
:10442000A0911703B0911803892B8A2B8B2BD1F104
:1044300090911203E0911303F09114038081892776
:1044400080838091150390911603A0911703B0917A
:104450001803181619061A061B069CF480911503FA
:1044600090911603A0911703B09118030197A10929
:10447000B1098093150390931603A0931703B0938B
:104480001803FF91EF91BF91AF919F918F917F9111
:104490006F915F914F913F912F910F900FBE0F90B1
:1044A0001F901895809192010E94E621EACF809199
:1044B000490390914A03891B990B089590914A03EF
:1044C000809149032FEF3FEF981748F4E92FF0E070
:1044D000E55BFC4F208130E09F5F90934A03C90168
:1044E0000895E0914A0380914903E81730F4F0E021
:1044F000E55BFC4F808190E008958FEF9FEF08957A
:104500000895CF93DF930F92CDB7DEB7FC01698397
:10451000809125038823F1F080912603803250F0AA
:1045200081E090E09383828390E080E00F90DF91C0
:10453000CF91089580912703E82FF0E0E85DFC4FCC
:10454000998190838F5F809327038093260381E076
:1045500090E0ECCF61E0CE0101960E94F305F7CF29
:10456000CF92DF92EF92FF920F931F93CF93DF933F
:104570007C01CB018A0120912503222389F0EB01E4
:104580006B01C40ED51ECC15DD0569F06991D7010C
:10459000ED91FC910190F081E02DC7010995F3CFD9
:1045A000642F0E94F305C801DF91CF911F910F91F5
:1045B000FF90EF90DF90CF900895FC01138212825C
:1045C00088EE93E0A0E0B0E084839583A683B78370
:1045D00087E991E091838083089510924A031092B5
:1045E000490310922703109226030C94850581E05D
:1045F00080932503609348031092270310922603AB
:1046000008950C94F7220F93062F21E04091260382
:1046100068E273E0809148030E94A305109227038B
:1046200010922603109225030F91089561E00C94D7
:10463000032389E193E00C94DD22CF93DF9300D034
:1046400000D0CDB7DEB780EA93E00E94BB1C40E00B
:104650006CEC80EA93E00E94581D40E064E480EA3C
:1046600093E00E94581D0E94D707693E7340810560
:10467000910508F44EC00E94D70780EA93E00E949B
:10468000BB1C40E06CEC80EA93E00E94581D40E0C7
:104690006EEB80EA93E00E94581D80EA93E00E944E
:1046A0008D1D8093AD0180EA93E00E948D1D809363
:1046B000AC01282F30E0482F407850E0509374032D
:1046C00040937303322F22279091AD0187FD34C0B0
:1046D00081E080937A0310927B03292BC901330F69
:1046E000AA0BBB0B89839A83AB83BC83BC01CD012E
:1046F0000E94752820E030E040E85DE369837A831A
:104700008B839C8369817A818B819C810E942A2979
:1047100004C060E070E080E090E069837A838B837E
:104720009C8369817A818B819C810F900F900F907F
:104730000F90DF91CF91089510927A0381E08093DA
:104740007B03292B319521953109C8CFCF92DF9278
:10475000EF92FF920F931F93CF93DF9300D000D07F
:1047600000D0CDB7DEB76B017C016983DA828B8321
:10477000FC8269817A818B819C810E943D28462F31
:10478000572F5E834D83CA01550FAA0BBB0B89833C
:104790009A83AB83BC83BC01CD010E9475289B0129
:1047A000AC01C982DA82EB82FC8269817A818B81D9
:1047B0009C810E94592720E030E048EC52E4698354
:1047C0007A838B839C8369817A818B819C810E940F
:1047D0002A2969837A838B839C8369817A818B817F
:1047E0009C810E943D288B01AD81BE81A436B1051C
:1047F000D4F020E030E048EC52E4C982DA82EB8267
:10480000FC8269817A818B819C810E94592769830E
:104810007A838B839C8369817A818B819C810E94BE
:104820003D286D837E838AE0E82EF12C8D819E8168
:10483000B7010E949C29462F898360E086EC93E0B3
:104840000E947721498161E086EC93E00E94772104
:10485000C801B7010E949C29462F898362E086EC3B
:1048600093E00E947721498163E086EC93E00E9407
:10487000772161E080917C0390917D03892B09F47D
:1048800060E086EC93E026960FB6F894DEBF0FBE8C
:10489000CDBFDF91CF911F910F91FF90EF90DF90EF
:1048A000CF900C9416210F931F93CF93DF938B011E
:1048B000D82FC92F41E060E08EEA93E00E94541A9D
:1048C00041E050E070E060E08EE793E00E94041C5D
:1048D00080917A03882361F064ED71E08EEA93E0C1
:1048E0000E94D81E64ED71E08EE793E00E94D81E0E
:1048F00080917B03882361F066ED71E08EEA93E09E
:104900000E94D81E66ED71E08EE793E00E94D81EEB
:1049100022E030E0A8016D2F7C2F8EEA93E00E9408
:104920009F2022E030E0A8016D2F7C2F8EE793E0DE
:10493000DF91CF911F910F910C949F20CF93C82F9F
:10494000682F83E00E941E09C093AE0140E060E042
:104950008EEA93E00E94541A50E040E070E060E07C
:104960008EE793E00E94041CCC2369F068ED71E0AF
:104970008EEA93E00E94D81E68ED71E08EE793E026
:10498000CF910C94D81E6FED71E08EEA93E00E94F7
:10499000D81E6FED71E0F2CFCF93DF93C82FD1E037
:1049A000682F6D278AE00E941E09C093AF0140E086
:1049B0006DE08EEA93E00E94541A50E040E06DE012
:1049C00070E08EE793E00E94041CC11110C01092A9
:1049D000790365EE71E08EEA93E00E94D81E65EEE1
:1049E00071E08EE793E0DF91CF910C94D81ED093C5
:1049F000790369EE71E08EEA93E00E94D81E69EEB9
:104A000071E0EFCFCF93DF9300D000D0CDB7DEB70A
:104A10008CEC93E00E942E1261E08CEC93E00E94FB
:104A2000E70F81E090E09093DF038093DE039093A3
:104A3000DD038093DC0382E090E09093D9038093C0
:104A4000D8031092DB031092DA038091AE0181113A
:104A500075C065EE71E08CEC93E00E94D81E8EE686
:104A600090E09093D9038093D8031092DB031092C7
:104A7000DA038091AF0181116CC065EE71E08CECBE
:104A800093E00E94D81E88E290E09093D90380932F
:104A9000D8031092DB031092DA030E94D7076983D0
:104AA0007A838B839C8328EE33E040E050E00E94C1
:104AB000B029BA01A9012AE030E08CEC93E00E9411
:104AC0003E1F62E08CEC93E00E94E70F8AE090E0EA
:104AD0009093D9038093D8038FE090E09093DB0309
:104AE0008093DA0380917A03882331F064ED71E0DA
:104AF0008CEC93E00E94D81E80917B03882331F0D8
:104B000066ED71E08CEC93E00E94D81E4091750335
:104B100050917603609177037091780322E030E042
:104B20008CEC93E00E949F208CEC93E00F900F9010
:104B30000F900F90DF91CF910C9496156DEE71E070
:104B40008CEC93E00E94D81E8091AE01811187CF3A
:104B500080CF6DEE71E08CEC93E00E94D81E8091C6
:104B6000AF01811190CF89CF0F9368EB7BE080E09C
:104B700090E00E942A0842E050E060E170E08EE799
:104B800093E00E944F1C6FEF70E08EE793E00E946D
:104B9000AB1B8EE793E00E94FB1B8EE793E00E9425
:104BA000F21B86EC93E00E94C42120EC40E460E01C
:104BB00086EC93E00E94102120E042E060E18EEA62
:104BC00093E00E94701A8CE893E00E94691740E01D
:104BD0006BE673E08CE893E00E949D1661E08DE047
:104BE0000E94E20860E08CE00E94E20860E08DE054
:104BF0000E94E20861E08AE00E94E20861E082E04F
:104C00000E94E20861E083E00E94E20881E00E94E5
:104C10009E2480E00E94CC241092790301E021E0E0
:104C20004CE362E08CEC93E00E9449128CEC93E040
:104C30000E942E1262E08CEC93E00F910C94E70F2F
:104C4000CF92DF92EF92FF92CF93DF9300D000D00C
:104C5000CDB7DEB70E941D23362F272F462F572FA3
:104C6000BC01409375035093760360937703709370
:104C7000780339832A838B839C8369817A818B8132
:104C80009C810E94A6238091750390917603A09148
:104C90007703B091780389839A83AB83BC83BC018B
:104CA000CD010E94532480917B03882359F120E099
:104CB00030E040E751E46091750370917603809194
:104CC0007703909178030E9425291816A4F020E01C
:104CD00030E040E251E46091750370917603809179
:104CE0007703909178030E94C62787FF0BC080E06E
:104CF0000E949E2407C081E00E949E2480917B0335
:104D00008111E5CF80917A03882319F080E00E9419
:104D10009E2480917B03882359F120E030E048EC09
:104D200051E46091750370917603809177039091BF
:104D300078030E9425291816A4F020E030E040EA0C
:104D400051E460917503709176038091770390919F
:104D500078030E94C62787FF0BC081E00E94CC2405
:104D600007C080E00E94CC2480917B038111E5CFB5
:104D700080917A03882359F120E030E046E952E43B
:104D80006091750370917603809177039091780319
:104D90000E94C62787FD14C020E030E040EA52E4BC
:104DA00060917503709176038091770390917803F9
:104DB0000E94252918165CF480E00E94CC2407C0CC
:104DC00081E00E94CC2480917A038111E5CF40E0FC
:104DD00066E08EEA93E00E94541A50E040E066E0FC
:104DE00070E08EE793E00E94041C0E94D70728EE33
:104DF000C22E23E0D22EE12CF12CA70196010E94B5
:104E0000B029BA01A9012AE030E08EEA93E00E94BD
:104E10003E1F0E94D70769837A838B839C83A701F7
:104E200096010E94B029BA01A9012AE030E08EE77C
:104E300093E00E943E1F0F900F900F900F90DF9114
:104E4000CF91FF90EF90DF90CF900C940225CF92FE
:104E5000EF920F9364E08CEC93E00E94D0104EE050
:104E60006FE086EC93E00E94D72084E0C82E95E0A6
:104E7000E92E06E027E048E069E08EEA93E00E9430
:104E8000481B6BE080EA93E00E94D51D60EA73E066
:104E90008CE893E00E94D61767E270E08EE793E01B
:104EA0000F91EF90CF900C94731B8CEC93E00C94CB
:104EB000F4105058BB27AA270E9471270C94EB28A6
:104EC0000E94DD2838F00E94E42820F039F49F3F4A
:104ED00019F426F40C94DA280EF4E095E7FB0C9410
:104EE000D428E92F0E94FC2858F3BA1762077307E9
:104EF0008407950720F079F4A6F50C941E290EF48A
:104F0000E0950B2EBA2FA02D0B01B90190010C01D9
:104F1000CA01A0011124FF27591B99F0593F50F4F1
:104F2000503E68F11A16F040A22F232F342F442749
:104F3000585FF3CF469537952795A795F040539541
:104F4000C9F77EF41F16BA0B620B730B840BBAF011
:104F50009150A1F0FF0FBB1F661F771F881FC2F77C
:104F60000EC0BA0F621F731F841F48F48795779590
:104F70006795B795F7959E3F08F0B0CF9395880F4A
:104F800008F09927EE0F9795879508950E94B0280D
:104F900008F481E008950E94DF270C94EB280E941A
:104FA000E42858F00E94DD2840F029F45F3F29F002
:104FB0000C94D42851110C941F290C94DA280E94C7
:104FC000FC2868F39923B1F3552391F3951B550BF6
:104FD000BB27AA2762177307840738F09F5F5F4FCC
:104FE000220F331F441FAA1FA9F335D00E2E3AF00B
:104FF000E0E832D091505040E695001CCAF72BD023
:10500000FE2F29D0660F771F881FBB1F2617370773
:105010004807AB07B0E809F0BB0B802DBF01FF27A5
:1050200093585F4F3AF09E3F510578F00C94D42886
:105030000C941F295F3FE4F3983ED4F3869577954F
:105040006795B795F7959F5FC9F7880F911D96955E
:10505000879597F90895E1E0660F771F881FBB1FBA
:10506000621773078407BA0720F0621B730B840B67
:10507000BA0BEE1F88F7E09508950E9444286894C3
:10508000B1110C941F2908950E94042988F09F579C
:1050900098F0B92F9927B751B0F0E1F0660F771F5C
:1050A000881F991F1AF0BA95C9F714C0B13091F052
:1050B0000E941E29B1E008950C941E29672F782FB5
:1050C0008827B85F39F0B93FCCF386957795679517
:1050D000B395D9F73EF490958095709561957F4F83
:1050E0008F4F9F4F0895E89409C097FB3EF4909529
:1050F0008095709561957F4F8F4F9F4F9923A9F0B1
:10510000F92F96E9BB279395F6958795779567953F
:10511000B795F111F8CFFAF4BB0F11F460FF1BC083
:105120006F5F7F4F8F4F9F4F16C0882311F096E916
:1051300011C0772321F09EE8872F762F05C06623C4
:1051400071F096E8862F70E060E02AF09A95660F7D
:10515000771F881FDAF7880F9695879597F9089536
:10516000990F0008550FAA0BE0E8FEEF1616170678
:10517000E807F907C0F012161306E407F50798F0E0
:10518000621B730B840B950B39F40A2661F0232BF9
:10519000242B252B21F408950A2609F4A140A69575
:1051A0008FEF811D811D089597F99F6780E870E05A
:1051B00060E008959FEF80EC089500240A9416168D
:1051C000170618060906089500240A9412161306F5
:1051D000140605060895092E0394000C11F4882383
:1051E00052F0BB0F40F4BF2B11F460FF04C06F5F9F
:1051F0007F4F8F4F9F4F089557FD9058440F551F75
:1052000059F05F3F71F04795880F97FB991F61F048
:105210009F3F79F087950895121613061406551FBF
:10522000F2CF4695F1DF08C0161617061806991F2B
:10523000F1CF86957105610508940895E894BB2720
:1052400066277727CB0197F908950E94B02808F4C4
:105250008FEF08950E943D290C94EB280E94DD28D1
:1052600038F00E94E42820F0952311F00C94D42803
:105270000C94DA2811240C941F290E94FC2870F346
:10528000959FC1F3950F50E0551F629FF001729FEB
:10529000BB27F00DB11D639FAA27F00DB11DAA1FFA
:1052A000649F6627B00DA11D661F829F2227B00D47
:1052B000A11D621F739FB00DA11D621F839FA00DD2
:1052C000611D221F749F3327A00D611D231F849F22
:1052D000600D211D822F762F6A2F11249F57504079
:1052E0009AF0F1F088234AF0EE0FFF1FBB1F661FF4
:1052F000771F881F91505040A9F79E3F510580F0BD
:105300000C94D4280C941F295F3FE4F3983ED4F307
:10531000869577956795B795F795E7959F5FC1F760
:10532000FE2B880F911D9695879597F908950E94F9
:10533000B028880B990B089597FB072E16F400945C
:1053400007D077FD09D00E94D22907FC05D03EF492
:10535000909581959F4F0895709561957F4F089521
:10536000A1E21A2EAA1BBB1BFD010DC0AA1FBB1F69
:10537000EE1FFF1FA217B307E407F50720F0A21BDB
:10538000B30BE40BF50B661F771F881F991F1A9448
:1053900069F760957095809590959B01AC01BD0172
:1053A000CF010895AA1BBB1B51E107C0AA1FBB1F59
:1053B000A617B70710F0A61BB70B881F991F5A95A1
:1053C000A9F780959095BC01CD010895EE0FFF1FC0
:1053D0000590F491E02D09940F931F93CF93DF93E1
:1053E0009C01029710F422E030E0E091F001F0918E
:1053F000F10190E080E0B0E0A0E0309791F40097F8
:1054000009F445C0821B930B84309105B8F58A815D
:105410009B816115710569F1FB0193838283FE0114
:1054200011C0408151810281138142175307F0F06E
:105430004217530799F4109761F012960C93129744
:1054400013961C933296CF01DF91CF911F910F914C
:1054500008950093F0011093F101F4CF009719F033
:105460004817590718F4CA01BD01EF01DF01F8011F
:10547000C4CF9093F1018093F001D1CFFE01E80FEA
:10548000F91F21933193029799838883DCCF809110
:10549000F2019091F301892B41F4809102019091E6
:1054A00003019093F3018093F201809100019091A8
:1054B0000101009741F48DB79EB7409104015091CE
:1054C0000501841B950B4091F2015091F30148179F
:1054D000590708F0B8CF841B950B8217930708F47F
:1054E000B2CFB9016E5F7F4F8617970708F4ABCF35
:1054F000640F751F7093F3016093F201FA01219319
:105500003193A1CFCF93DF939C010097E9F0FC0189
:10551000329713821282C091F001D091F101DE0125
:1055200090E080E02097A1F480819181280F391FBD
:105530008091F2019091F3018217930709F067C0FF
:10554000F093F301E093F201DF91CF910895DA0136
:10555000AE17BF0708F041C012964D915C911397AA
:10556000CD014115510599F7DC011396FC93EE939B
:1055700012974D915D91A40FB51FEA17FB0781F4B7
:10558000208131812E5F3F4F240F351FDC011196A2
:105590003C932E932281338113963C932E93129742
:1055A000B0E0A0E08A819B810097B1F5FE01819176
:1055B0009191E80FF91F8091F2019091F3018E17FC
:1055C0009F0711F6109759F51092F1011092F00112
:1055D000D093F301C093F201B7CFB383A28340818C
:1055E0005181240F351FA217B30771F44E5F5F4F2F
:1055F0002D913C911197420F531F51834083129676
:105600002D913C9133832283009709F0ADCFF09325
:10561000F101E093F00198CFDE01EC01C3CF1396C6
:105620001C921E921297D4CF81E090E0F8940C94D3
:10563000292BFB01DC0102C001900D92415050402A
:10564000D8F70895DC0101C06D9341505040E0F758
:10565000089515E0C9E5D5E004C0FE010E94E629E1
:0C5660002196CA35D107C9F7F894FFCF96
:10566C0000000404200040074007000000000B0F5E
:10567C00941E7409770972092B0A2C0A4B0A330AF7
:10568C003F0A78092B0A040C030C5B0A940ACD0A16
:10569C00120B2F0BA40B000000000B0F941E7409AF
:1056AC00770915102B0A2C0A4B0A330A3F0A780982
:1056BC002B0A040C5C115D152615CD0A120B2F0B51
:1056CC00A40B000000007018941E11185018E41759
:1056DC00FD17EF17000000004719000000006D1BBC
:1056EC00941E7409770900000000481C941E74096C
:1056FC007709FF000000008122B022740980225734
:10570C00225E22712200000000000000FC900101CA
:10571C0000004000140054006E616E00696E66005B
:10572C006F7666003F065B4F666D7D077F6F777CFB
:10573C00395E79712B002D004F4E20202020004F18
:10574C0046462020004F4646004F4E20004F4E004C
:00000001FF
